:100000000EC05AC01CC01BC01AC019C018C017C0EF
:1000100016C015C014C013C012C011C010C01124E6
:100020001FBECFE5D2E0DEBFCDBF10E0A0E6B0E05E
:1000300001C01D92A336B107E1F76CD076C0E0CFC6
:1000400088E087BB8BB780648BBF85B7816085BF35
:100050007894089586B382FB882780F991E08927F8
:1000600080936200089580916200882321F180913D
:100070006100811120C0C39A2AE030E088EE93E04D
:1000800040916000442319F0109260000895EBE263
:10009000F1E03197F1F700C000000197009781F778
:1000A000215031092115310549F781E08093610024
:1000B00010926000C39808951F920F920FB60F928E
:1000C00011242F933F934F935F936F937F938F935D
:1000D0009F93AF93BF93EF93FF93BCDF81E0809337
:1000E0006000B299C3988BE291E00197F1F700C0EC
:1000F0000000FF91EF91BF91AF919F918F917F9100
:100100006F915F914F913F912F910F900FBE0F9084
:100110001F90189595DF9EDFA6DF80916200811108
:0E012000FBCFC39810926100F7CFF894FFCF89
:00000001FF
