:100000000EC031C01CC01BC01AC019C018C017C018
:1000100016C015C014C013C012C011C010C01124E6
:100020001FBECFE5D2E0DEBFCDBF10E0A0E6B0E05E
:1000300001C01D92A236B107E1F73ED047C0E0CF24
:1000400088E087BB8BB780648BBF85B7816085BF35
:100050007894089586B382FB882780F991E08927F8
:100060008093610008951F920F920FB60F92112492
:100070002F933F934F935F936F937F938F939F93B0
:10008000AF93BF93EF93FF93E5DF8BE291E001978E
:10009000F1F700C00000FF91EF91BF91AF919F91E8
:1000A0008F917F916F915F914F913F912F910F9021
:1000B0000FBE0F901F901895C3DFCCDF80916100B9
:1000C000882311F0C39AFACFC398F8CFF894FFCFE2
:00000001FF
